{
  "contractName": "Hashes",
  "abi": [
    {
      "constant": false,
      "inputs": [
        {
          "name": "_user",
          "type": "string"
        },
        {
          "name": "passwd",
          "type": "string"
        }
      ],
      "name": "userEnrollment",
      "outputs": [],
      "payable": false,
      "stateMutability": "nonpayable",
      "type": "function"
    },
    {
      "constant": false,
      "inputs": [
        {
          "name": "_hash",
          "type": "string"
        }
      ],
      "name": "addFile",
      "outputs": [],
      "payable": false,
      "stateMutability": "nonpayable",
      "type": "function"
    },
    {
      "constant": true,
      "inputs": [],
      "name": "getMyUserName",
      "outputs": [
        {
          "name": "",
          "type": "string"
        }
      ],
      "payable": false,
      "stateMutability": "view",
      "type": "function"
    },
    {
      "constant": true,
      "inputs": [],
      "name": "getFilesFromUser",
      "outputs": [
        {
          "name": "",
          "type": "string"
        }
      ],
      "payable": false,
      "stateMutability": "view",
      "type": "function"
    },
    {
      "constant": false,
      "inputs": [
        {
          "name": "passwd",
          "type": "string"
        }
      ],
      "name": "login",
      "outputs": [],
      "payable": false,
      "stateMutability": "nonpayable",
      "type": "function"
    },
    {
      "constant": false,
      "inputs": [],
      "name": "logout",
      "outputs": [],
      "payable": false,
      "stateMutability": "nonpayable",
      "type": "function"
    },
    {
      "constant": false,
      "inputs": [
        {
          "name": "_userToShare",
          "type": "string"
        },
        {
          "name": "_hash",
          "type": "string"
        }
      ],
      "name": "shareHash",
      "outputs": [],
      "payable": false,
      "stateMutability": "nonpayable",
      "type": "function"
    }
  ],
  "bytecode": "0x608060405234801561001057600080fd5b5061134f806100206000396000f300608060405260043610610083576000357c0100000000000000000000000000000000000000000000000000000000900463ffffffff1680631f3c99c3146100885780633a7d280c1461009f578063485d114f14610108578063589c7fb0146101985780637b4c7c5f14610228578063ab7bf051146102d7578063eb9b9b6414610386575b600080fd5b34801561009457600080fd5b5061009d6103ef565b005b3480156100ab57600080fd5b50610106600480360381019080803590602001908201803590602001908080601f016020809104026020016040519081016040528093929190818152602001838380828437820191505050505050919291929050505061046f565b005b34801561011457600080fd5b5061011d6104f1565b6040518080602001828103825283818151815260200191508051906020019080838360005b8381101561015d578082015181840152602081019050610142565b50505050905090810190601f16801561018a5780820380516001836020036101000a031916815260200191505b509250505060405180910390f35b3480156101a457600080fd5b506101ad6105d8565b6040518080602001828103825283818151815260200191508051906020019080838360005b838110156101ed5780820151818401526020810190506101d2565b50505050905090810190601f16801561021a5780820380516001836020036101000a031916815260200191505b509250505060405180910390f35b34801561023457600080fd5b506102d5600480360381019080803590602001908201803590602001908080601f0160208091040260200160405190810160405280939291908181526020018383808284378201915050505050509192919290803590602001908201803590602001908080601f01602080910402602001604051908101604052809392919081815260200183838082843782019150505050505091929192905050506108ed565b005b3480156102e357600080fd5b50610384600480360381019080803590602001908201803590602001908080601f0160208091040260200160405190810160405280939291908181526020018383808284378201915050505050509192919290803590602001908201803590602001908080601f0160208091040260200160405190810160405280939291908181526020018383808284378201915050505050509192919290505050610c7d565b005b34801561039257600080fd5b506103ed600480360381019080803590602001908201803590602001908080601f0160208091040260200160405190810160405280939291908181526020018383808284378201915050505050509192919290505050610e6f565b005b6000600160003373ffffffffffffffffffffffffffffffffffffffff1673ffffffffffffffffffffffffffffffffffffffff16815260200190815260200160002090508060040160009054906101000a900460ff16151561044f57600080fd5b60008160040160006101000a81548160ff02191690831515021790555050565b6000600160003373ffffffffffffffffffffffffffffffffffffffff1673ffffffffffffffffffffffffffffffffffffffff16815260200190815260200160002090508060040160009054906101000a900460ff161515156104d057600080fd5b60018160040160006101000a81548160ff0219169083151502179055505050565b606080600160003373ffffffffffffffffffffffffffffffffffffffff1673ffffffffffffffffffffffffffffffffffffffff1681526020019081526020016000206001018054600181600116156101000203166002900480601f0160208091040260200160405190810160405280929190818152602001828054600181600116156101000203166002900480156105ca5780601f1061059f576101008083540402835291602001916105ca565b820191906000526020600020905b8154815290600101906020018083116105ad57829003601f168201915b505050505090508091505090565b60608060008060606040805190810160405280600881526020017f4e6f2066696c65730000000000000000000000000000000000000000000000008152509350600160003373ffffffffffffffffffffffffffffffffffffffff1673ffffffffffffffffffffffffffffffffffffffff16815260200190815260200160002092508260040160009054906101000a900460ff16151561067657600080fd5b600091505b82600301805490508210156108e35760008214156107a55761079e6106d46040805190810160405280600181526020017f2f00000000000000000000000000000000000000000000000000000000000000815250610fcd565b61079085600301858154811015156106e857fe5b906000526020600020018054600181600116156101000203166002900480601f0160208091040260200160405190810160405280929190818152602001828054600181600116156101000203166002900480156107865780601f1061075b57610100808354040283529160200191610786565b820191906000526020600020905b81548152906001019060200180831161076957829003601f168201915b5050505050610fcd565b610ffb90919063ffffffff16565b93506108d8565b6108b06107e66040805190810160405280600181526020017f2f00000000000000000000000000000000000000000000000000000000000000815250610fcd565b6108a285600301858154811015156107fa57fe5b906000526020600020018054600181600116156101000203166002900480601f0160208091040260200160405190810160405280929190818152602001828054600181600116156101000203166002900480156108985780601f1061086d57610100808354040283529160200191610898565b820191906000526020600020905b81548152906001019060200180831161087b57829003601f168201915b5050505050610fcd565b610ffb90919063ffffffff16565b90506108d56108be82610fcd565b6108c786610fcd565b610ffb90919063ffffffff16565b93505b81600101915061067b565b8394505050505090565b600060606108f96110c8565b600092505b600080549050831015610916578260010192506108fe565b60a0604051908101604052803373ffffffffffffffffffffffffffffffffffffffff1681526020018681526020018581526020018381526020016000151581525090506000819080600181540180825580915050906001820390600052602060002090600502016000909192909190915060008201518160000160006101000a81548173ffffffffffffffffffffffffffffffffffffffff021916908373ffffffffffffffffffffffffffffffffffffffff16021790555060208201518160010190805190602001906109ea929190611110565b506040820151816002019080519060200190610a07929190611110565b506060820151816003019080519060200190610a24929190611190565b5060808201518160040160006101000a81548160ff02191690831515021790555050505080600160003373ffffffffffffffffffffffffffffffffffffffff1673ffffffffffffffffffffffffffffffffffffffff16815260200190815260200160002060008201518160000160006101000a81548173ffffffffffffffffffffffffffffffffffffffff021916908373ffffffffffffffffffffffffffffffffffffffff1602179055506020820151816001019080519060200190610aeb929190611110565b506040820151816002019080519060200190610b08929190611110565b506060820151816003019080519060200190610b25929190611190565b5060808201518160040160006101000a81548160ff021916908315150217905550905050806002866040518082805190602001908083835b602083101515610b825780518252602082019150602081019050602083039250610b5d565b6001836020036101000a038019825116818451168082178552505050505050905001915050908152602001604051809103902060008201518160000160006101000a81548173ffffffffffffffffffffffffffffffffffffffff021916908373ffffffffffffffffffffffffffffffffffffffff1602179055506020820151816001019080519060200190610c18929190611110565b506040820151816002019080519060200190610c35929190611110565b506060820151816003019080519060200190610c52929190611190565b5060808201518160040160006101000a81548160ff0219169083151502179055509050505050505050565b6000806000806000600160003373ffffffffffffffffffffffffffffffffffffffff1673ffffffffffffffffffffffffffffffffffffffff16815260200190815260200160002094508460040160009054906101000a900460ff161515610ce357600080fd5b60009350600092505b8460030180549050831015610d0657826001019250610cec565b831515610d1257600080fd5b6002876040518082805190602001908083835b602083101515610d4a5780518252602082019150602081019050602083039250610d25565b6001836020036101000a0380198251168184511680821785525050505050509050019150509081526020016040518091039020915081600301869080600181540180825580915050906001820390600052602060002001600090919290919091509080519060200190610dbe9291906111f0565b5050600160008360000160009054906101000a900473ffffffffffffffffffffffffffffffffffffffff1673ffffffffffffffffffffffffffffffffffffffff1673ffffffffffffffffffffffffffffffffffffffff168152602001908152602001600020905080600301869080600181540180825580915050906001820390600052602060002001600090919290919091509080519060200190610e649291906111f0565b505050505050505050565b600080600160003373ffffffffffffffffffffffffffffffffffffffff1673ffffffffffffffffffffffffffffffffffffffff16815260200190815260200160002091506002826001016040518082805460018160011615610100020316600290048015610f145780601f10610ef2576101008083540402835291820191610f14565b820191906000526020600020905b815481529060010190602001808311610f00575b5050915050908152602001604051809103902090508160040160009054906101000a900460ff161515610f4657600080fd5b81600301839080600181540180825580915050906001820390600052602060002001600090919290919091509080519060200190610f859291906111f0565b505080600301839080600181540180825580915050906001820390600052602060002001600090919290919091509080519060200190610fc69291906111f0565b5050505050565b610fd5611270565b600060208301905060408051908101604052808451815260200182815250915050919050565b606080600083600001518560000151016040519080825280601f01601f19166020018201604052801561103d5781602001602082028038833980820191505090505b509150602082019050611059818660200151876000015161107d565b611072856000015182018560200151866000015161107d565b819250505092915050565b60005b6020821015156110a55782518452602084019350602083019250602082039150611080565b6001826020036101000a0390508019835116818551168181178652505050505050565b60a060405190810160405280600073ffffffffffffffffffffffffffffffffffffffff1681526020016060815260200160608152602001606081526020016000151581525090565b828054600181600116156101000203166002900490600052602060002090601f016020900481019282601f1061115157805160ff191683800117855561117f565b8280016001018555821561117f579182015b8281111561117e578251825591602001919060010190611163565b5b50905061118c919061128a565b5090565b8280548282559060005260206000209081019282156111df579160200282015b828111156111de5782518290805190602001906111ce929190611110565b50916020019190600101906111b0565b5b5090506111ec91906112af565b5090565b828054600181600116156101000203166002900490600052602060002090601f016020900481019282601f1061123157805160ff191683800117855561125f565b8280016001018555821561125f579182015b8281111561125e578251825591602001919060010190611243565b5b50905061126c919061128a565b5090565b604080519081016040528060008152602001600081525090565b6112ac91905b808211156112a8576000816000905550600101611290565b5090565b90565b6112d891905b808211156112d457600081816112cb91906112db565b506001016112b5565b5090565b90565b50805460018160011615610100020316600290046000825580601f106113015750611320565b601f01602090049060005260206000209081019061131f919061128a565b5b505600a165627a7a723058207670b055f34a088d4c3a2477fd40d89e7104d119270e565ac3e5ce8722700e0f0029",
  "source": "pragma solidity 0.4.24;\r\n\r\nimport \"./Strings.sol\";\r\n\r\n\r\ncontract Hashes {\r\n\r\n  using Strings for *;\r\n\r\n  struct User {\r\n    address account;\r\n    string name;\r\n    string passwd;\r\n    string[] files;\r\n    bool active;\r\n  }\r\n\r\n  User[] users_;\r\n  mapping (address => User) addressToUser_;\r\n  mapping (string => User) usernameToUser_;\r\n\r\n  // @dev Hashes.deployed().then(function(instance){return instance.userEnrollment('raul', 'xd')})\r\n  function userEnrollment(string _user, string passwd) public {\r\n    //Comprovar que no existeixi un user amb aquesta adreça ni amb aquest nom\r\n    //require(addressToUser_[msg.sender].name == '');\r\n\r\n    for (uint i = 0; i < users_.length; ++i) {\r\n      //require(_user != users_[i].name);\r\n    }\r\n\r\n    string[] memory files;\r\n    User memory newUser = User(msg.sender, _user, passwd, files, false);\r\n    users_.push(newUser);\r\n    addressToUser_[msg.sender] = newUser;\r\n    usernameToUser_[_user] = newUser;\r\n  }\r\n\r\n  // @dev Hashes.deployed().then(function(instance){return instance.addFile('983umskjdsfh892hfy89hf8d9sh')})\r\n  //Afegir fitxer\r\n  function addFile(string _hash) public {\r\n    //Caldria comprovar que el hash no conte '/'\r\n    User storage user = addressToUser_[msg.sender];\r\n    User storage user_names = usernameToUser_[user.name];\r\n    //Comprovem que l'usuari s'ha loggejat\r\n    require(user.active);//, 'You cannot add a file without logging in');\r\n    user.files.push(_hash);\r\n    user_names.files.push(_hash);\r\n\r\n  }\r\n\r\n  // @dev Hashes.deployed().then(function(instance) { return instance.getMyUserName() } )\r\n  function getMyUserName() public view returns (string) {\r\n    string memory username = addressToUser_[msg.sender].name;\r\n    /* if (username == \"\") {\r\n      return \"\";\r\n    } else {\r\n      return username;\r\n    } */\r\n    return username;\r\n  }\r\n\r\n  // @dev Hashes.deployed().then(function(instance) { return instance.getFilesFromUser() })\r\n  // Retorna tots els fitxers que pertanyen a aquest usuari\r\n  function getFilesFromUser() public view returns (string) {\r\n    string memory returnValue = \"No files\";\r\n    User storage user = addressToUser_[msg.sender];\r\n    // L'usuari ha d'estar loggejat\r\n    require(user.active);\r\n    for (uint256 i = 0; i < user.files.length; ++i) {\r\n      if (i == 0) {\r\n        returnValue = user.files[i].toSlice().concat(\"/\".toSlice());\r\n      } else {\r\n        string memory inter = user.files[i].toSlice().concat(\"/\".toSlice());\r\n        returnValue = returnValue.toSlice().concat(inter.toSlice());\r\n      }\r\n    }\r\n    return returnValue;\r\n  }\r\n\r\n  // @dev Hashes.deployed().then(function(instance) { return instance.login( 'xd' ) })\r\n  // Per fer login del usuari\r\n  function login(string passwd) public {\r\n    User storage user = addressToUser_[msg.sender];\r\n    // Per poder fer login l'usuari no ha d'estar loggejat\r\n    require(!user.active);\r\n    //require(user.passwd == passwd);\r\n    user.active = true;\r\n  }\r\n\r\n  // @dev Hashes.deployed().then(function(instance) { return instance.logout() })\r\n  // Per fer logout del usuari\r\n  function logout() public {\r\n    User storage user = addressToUser_[msg.sender];\r\n    // Per poder fer logout l'usuari ha d'estar loggejat\r\n    require(user.active); \r\n    user.active = false;\r\n  }\r\n\r\n  function shareHash(string _userToShare, string _hash) public {\r\n    User storage userOwner = addressToUser_[msg.sender];\r\n    // Per poder compartir un hash has d'estar loggejat\r\n    require(userOwner.active);\r\n    bool found = false;\r\n    for (uint i = 0; i < userOwner.files.length; ++i) {\r\n      /* if (user.files[i] == _hash) {\r\n        found = true;\r\n      } */\r\n    }\r\n    // Per poder compartir un hash l'usuari ha de tenir el hash\r\n    require(found);\r\n    User storage user2Share = usernameToUser_[_userToShare];\r\n    user2Share.files.push(_hash);\r\n    User storage user2 = addressToUser_[user2Share.account];\r\n    // Per poder compartir un hash amb un usuari aquest ha d'existir\r\n    //require(user2.name != '');\r\n    user2.files.push(_hash);\r\n  }\r\n\r\n}",
  "sourcePath": "C:\\Users\\Raul\\Documents\\FIB\\PTI\\PTI-Project\\Prova\\contracts\\Hashes.sol",
  "compiler": {
    "name": "solc",
    "version": "0.4.24+commit.e67f0147.Emscripten.clang"
  },
  "schemaVersion": "2.0.1",
  "updatedAt": "2018-11-26T21:33:57.453Z"
}