{
  "contractName": "Hashes",
  "abi": [
    {
      "constant": false,
      "inputs": [
        {
          "name": "_user",
          "type": "string"
        },
        {
          "name": "passwd",
          "type": "string"
        }
      ],
      "name": "userEnrollment",
      "outputs": [],
      "payable": false,
      "stateMutability": "nonpayable",
      "type": "function"
    },
    {
      "constant": false,
      "inputs": [
        {
          "name": "_hash",
          "type": "string"
        }
      ],
      "name": "addFile",
      "outputs": [],
      "payable": false,
      "stateMutability": "nonpayable",
      "type": "function"
    },
    {
      "constant": true,
      "inputs": [],
      "name": "getMyUserName",
      "outputs": [
        {
          "name": "",
          "type": "string"
        }
      ],
      "payable": false,
      "stateMutability": "view",
      "type": "function"
    },
    {
      "constant": true,
      "inputs": [],
      "name": "getFilesFromUser",
      "outputs": [
        {
          "name": "",
          "type": "string"
        }
      ],
      "payable": false,
      "stateMutability": "view",
      "type": "function"
    },
    {
      "constant": false,
      "inputs": [
        {
          "name": "passwd",
          "type": "string"
        }
      ],
      "name": "login",
      "outputs": [],
      "payable": false,
      "stateMutability": "nonpayable",
      "type": "function"
    },
    {
      "constant": false,
      "inputs": [],
      "name": "logout",
      "outputs": [],
      "payable": false,
      "stateMutability": "nonpayable",
      "type": "function"
    },
    {
      "constant": false,
      "inputs": [
        {
          "name": "_userToShare",
          "type": "string"
        },
        {
          "name": "_hash",
          "type": "string"
        }
      ],
      "name": "shareHash",
      "outputs": [],
      "payable": false,
      "stateMutability": "nonpayable",
      "type": "function"
    }
  ],
  "bytecode": "0x608060405234801561001057600080fd5b50611883806100206000396000f300608060405260043610610083576000357c0100000000000000000000000000000000000000000000000000000000900463ffffffff1680631f3c99c3146100885780633a7d280c1461009f578063485d114f146100c8578063589c7fb0146100f35780637b4c7c5f1461011e578063ab7bf05114610147578063eb9b9b6414610170575b600080fd5b34801561009457600080fd5b5061009d610199565b005b3480156100ab57600080fd5b506100c660048036036100c1919081019061168d565b610219565b005b3480156100d457600080fd5b506100dd61037e565b6040516100ea9190611770565b60405180910390f35b3480156100ff57600080fd5b50610108610500565b6040516101159190611770565b60405180910390f35b34801561012a57600080fd5b50610145600480360361014091908101906116ce565b610815565b005b34801561015357600080fd5b5061016e600480360361016991908101906116ce565b610d74565b005b34801561017c57600080fd5b506101976004803603610192919081019061168d565b611183565b005b6000600160003373ffffffffffffffffffffffffffffffffffffffff1673ffffffffffffffffffffffffffffffffffffffff16815260200190815260200160002090508060040160009054906101000a900460ff1615156101f957600080fd5b60008160040160006101000a81548160ff02191690831515021790555050565b6000600160003373ffffffffffffffffffffffffffffffffffffffff1673ffffffffffffffffffffffffffffffffffffffff16815260200190815260200160002090508060040160009054906101000a900460ff1615151561027a57600080fd5b816040518082805190602001908083835b6020831015156102b0578051825260208201915060208101905060208303925061028b565b6001836020036101000a0380198251168184511680821785525050505050509050019150506040518091039020600019168160020160405180828054600181600116156101000203166002900480156103405780601f1061031e576101008083540402835291820191610340565b820191906000526020600020905b81548152906001019060200180831161032c575b505091505060405180910390206000191614151561035d57600080fd5b60018160040160006101000a81548160ff0219169083151502179055505050565b606080600160003373ffffffffffffffffffffffffffffffffffffffff1673ffffffffffffffffffffffffffffffffffffffff1681526020019081526020016000206001018054600181600116156101000203166002900480601f0160208091040260200160405190810160405280929190818152602001828054600181600116156101000203166002900480156104575780601f1061042c57610100808354040283529160200191610457565b820191906000526020600020905b81548152906001019060200180831161043a57829003601f168201915b50505050509050604051806000019050604051809103902060001916816040518082805190602001908083835b6020831015156104a95780518252602082019150602081019050602083039250610484565b6001836020036101000a03801982511681845116808217855250505050505090500191505060405180910390206000191614156104f857602060405190810160405280600081525091506104fc565b8091505b5090565b60608060008060606040805190810160405280600881526020017f4e6f2066696c65730000000000000000000000000000000000000000000000008152509350600160003373ffffffffffffffffffffffffffffffffffffffff1673ffffffffffffffffffffffffffffffffffffffff16815260200190815260200160002092508260040160009054906101000a900460ff16151561059e57600080fd5b600091505b826003018054905082101561080b5760008214156106cd576106c66105fc6040805190810160405280600181526020017f2f000000000000000000000000000000000000000000000000000000000000008152506112e1565b6106b8856003018581548110151561061057fe5b906000526020600020018054600181600116156101000203166002900480601f0160208091040260200160405190810160405280929190818152602001828054600181600116156101000203166002900480156106ae5780601f10610683576101008083540402835291602001916106ae565b820191906000526020600020905b81548152906001019060200180831161069157829003601f168201915b50505050506112e1565b61130f90919063ffffffff16565b9350610800565b6107d861070e6040805190810160405280600181526020017f2f000000000000000000000000000000000000000000000000000000000000008152506112e1565b6107ca856003018581548110151561072257fe5b906000526020600020018054600181600116156101000203166002900480601f0160208091040260200160405190810160405280929190818152602001828054600181600116156101000203166002900480156107c05780601f10610795576101008083540402835291602001916107c0565b820191906000526020600020905b8154815290600101906020018083116107a357829003601f168201915b50505050506112e1565b61130f90919063ffffffff16565b90506107fd6107e6826112e1565b6107ef866112e1565b61130f90919063ffffffff16565b93505b8160010191506105a3565b8394505050505090565b600060606108216113dc565b604051806000019050604051809103902060001916600160003373ffffffffffffffffffffffffffffffffffffffff1673ffffffffffffffffffffffffffffffffffffffff16815260200190815260200160002060010160405180828054600181600116156101000203166002900480156108d35780601f106108b15761010080835404028352918201916108d3565b820191906000526020600020905b8154815290600101906020018083116108bf575b50509150506040518091039020600019161415156108f057600080fd5b600092505b600080549050831015610a0d5760008381548110151561091157fe5b9060005260206000209060050201600101604051808280546001816001161561010002031660029004801561097d5780601f1061095b57610100808354040283529182019161097d565b820191906000526020600020905b815481529060010190602001808311610969575b5050915050604051809103902060001916856040518082805190602001908083835b6020831015156109c4578051825260208201915060208101905060208303925061099f565b6001836020036101000a03801982511681845116808217855250505050505090500191505060405180910390206000191614151515610a0257600080fd5b8260010192506108f5565b60a0604051908101604052803373ffffffffffffffffffffffffffffffffffffffff1681526020018681526020018581526020018381526020016000151581525090506000819080600181540180825580915050906001820390600052602060002090600502016000909192909190915060008201518160000160006101000a81548173ffffffffffffffffffffffffffffffffffffffff021916908373ffffffffffffffffffffffffffffffffffffffff1602179055506020820151816001019080519060200190610ae1929190611424565b506040820151816002019080519060200190610afe929190611424565b506060820151816003019080519060200190610b1b9291906114a4565b5060808201518160040160006101000a81548160ff02191690831515021790555050505080600160003373ffffffffffffffffffffffffffffffffffffffff1673ffffffffffffffffffffffffffffffffffffffff16815260200190815260200160002060008201518160000160006101000a81548173ffffffffffffffffffffffffffffffffffffffff021916908373ffffffffffffffffffffffffffffffffffffffff1602179055506020820151816001019080519060200190610be2929190611424565b506040820151816002019080519060200190610bff929190611424565b506060820151816003019080519060200190610c1c9291906114a4565b5060808201518160040160006101000a81548160ff021916908315150217905550905050806002866040518082805190602001908083835b602083101515610c795780518252602082019150602081019050602083039250610c54565b6001836020036101000a038019825116818451168082178552505050505050905001915050908152602001604051809103902060008201518160000160006101000a81548173ffffffffffffffffffffffffffffffffffffffff021916908373ffffffffffffffffffffffffffffffffffffffff1602179055506020820151816001019080519060200190610d0f929190611424565b506040820151816002019080519060200190610d2c929190611424565b506060820151816003019080519060200190610d499291906114a4565b5060808201518160040160006101000a81548160ff0219169083151502179055509050505050505050565b6000806000806000600160003373ffffffffffffffffffffffffffffffffffffffff1673ffffffffffffffffffffffffffffffffffffffff16815260200190815260200160002094508460040160009054906101000a900460ff161515610dda57600080fd5b60009350600092505b8460030180549050831015610ef657856040518082805190602001908083835b602083101515610e285780518252602082019150602081019050602083039250610e03565b6001836020036101000a0380198251168184511680821785525050505050509050019150506040518091039020600019168560030184815481101515610e6a57fe5b906000526020600020016040518082805460018160011615610100020316600290048015610ecf5780601f10610ead576101008083540402835291820191610ecf565b820191906000526020600020905b815481529060010190602001808311610ebb575b50509150506040518091039020600019161415610eeb57600193505b826001019250610de3565b831515610f0257600080fd5b6002876040518082805190602001908083835b602083101515610f3a5780518252602082019150602081019050602083039250610f15565b6001836020036101000a03801982511681845116808217855250505050505090500191505090815260200160405180910390209150604051806000019050604051809103902060001916826001016040518082805460018160011615610100020316600290048015610fe35780601f10610fc1576101008083540402835291820191610fe3565b820191906000526020600020905b815481529060010190602001808311610fcf575b50509150506040518091039020600019161415151561100157600080fd5b81600301869080600181540180825580915050906001820390600052602060002001600090919290919091509080519060200190611040929190611504565b5050600160008360000160009054906101000a900473ffffffffffffffffffffffffffffffffffffffff1673ffffffffffffffffffffffffffffffffffffffff1673ffffffffffffffffffffffffffffffffffffffff168152602001908152602001600020905060405180600001905060405180910390206000191681600101604051808280546001816001161561010002031660029004801561111b5780601f106110f957610100808354040283529182019161111b565b820191906000526020600020905b815481529060010190602001808311611107575b50509150506040518091039020600019161415151561113957600080fd5b80600301869080600181540180825580915050906001820390600052602060002001600090919290919091509080519060200190611178929190611504565b505050505050505050565b600080600160003373ffffffffffffffffffffffffffffffffffffffff1673ffffffffffffffffffffffffffffffffffffffff168152602001908152602001600020915060028260010160405180828054600181600116156101000203166002900480156112285780601f10611206576101008083540402835291820191611228565b820191906000526020600020905b815481529060010190602001808311611214575b5050915050908152602001604051809103902090508160040160009054906101000a900460ff16151561125a57600080fd5b81600301839080600181540180825580915050906001820390600052602060002001600090919290919091509080519060200190611299929190611504565b5050806003018390806001815401808255809150509060018203906000526020600020016000909192909190915090805190602001906112da929190611504565b5050505050565b6112e9611584565b600060208301905060408051908101604052808451815260200182815250915050919050565b606080600083600001518560000151016040519080825280601f01601f1916602001820160405280156113515781602001602082028038833980820191505090505b50915060208201905061136d8186602001518760000151611391565b6113868560000151820185602001518660000151611391565b819250505092915050565b60005b6020821015156113b95782518452602084019350602083019250602082039150611394565b6001826020036101000a0390508019835116818551168181178652505050505050565b60a060405190810160405280600073ffffffffffffffffffffffffffffffffffffffff1681526020016060815260200160608152602001606081526020016000151581525090565b828054600181600116156101000203166002900490600052602060002090601f016020900481019282601f1061146557805160ff1916838001178555611493565b82800160010185558215611493579182015b82811115611492578251825591602001919060010190611477565b5b5090506114a0919061159e565b5090565b8280548282559060005260206000209081019282156114f3579160200282015b828111156114f25782518290805190602001906114e2929190611424565b50916020019190600101906114c4565b5b50905061150091906115c3565b5090565b828054600181600116156101000203166002900490600052602060002090601f016020900481019282601f1061154557805160ff1916838001178555611573565b82800160010185558215611573579182015b82811115611572578251825591602001919060010190611557565b5b509050611580919061159e565b5090565b604080519081016040528060008152602001600081525090565b6115c091905b808211156115bc5760008160009055506001016115a4565b5090565b90565b6115ec91905b808211156115e857600081816115df91906115ef565b506001016115c9565b5090565b90565b50805460018160011615610100020316600290046000825580601f106116155750611634565b601f016020900490600052602060002090810190611633919061159e565b5b50565b600082601f830112151561164a57600080fd5b813561165d611658826117bf565b611792565b9150808252602083016020830185838301111561167957600080fd5b6116848382846117f6565b50505092915050565b60006020828403121561169f57600080fd5b600082013567ffffffffffffffff8111156116b957600080fd5b6116c584828501611637565b91505092915050565b600080604083850312156116e157600080fd5b600083013567ffffffffffffffff8111156116fb57600080fd5b61170785828601611637565b925050602083013567ffffffffffffffff81111561172457600080fd5b61173085828601611637565b9150509250929050565b6000611745826117eb565b808452611759816020860160208601611805565b61176281611838565b602085010191505092915050565b6000602082019050818103600083015261178a818461173a565b905092915050565b6000604051905081810181811067ffffffffffffffff821117156117b557600080fd5b8060405250919050565b600067ffffffffffffffff8211156117d657600080fd5b601f19601f8301169050602081019050919050565b600081519050919050565b82818337600083830152505050565b60005b83811015611823578082015181840152602081019050611808565b83811115611832576000848401525b50505050565b6000601f19601f83011690509190505600a265627a7a72305820ce9d391d7dcb563c375b44e2e5f20ddc7b65686df682f51c4d4d7cc55c481eb56c6578706572696d656e74616cf50037",
  "source": "pragma solidity 0.4.24;\r\npragma experimental ABIEncoderV2;\r\n\r\nimport \"./Strings.sol\";\r\n\r\n\r\ncontract Hashes {\r\n\r\n  using Strings for *;\r\n\r\n  struct User {\r\n    address account;\r\n    string name;\r\n    string passwd;\r\n    string[] files;\r\n    bool active;\r\n  }\r\n\r\n  User[] users_;\r\n  mapping (address => User) addressToUser_;\r\n  mapping (string => User) usernameToUser_;\r\n\r\n  // @dev Hashes.deployed().then(function(instance){return instance.userEnrollment('raul', 'xd')})\r\n  function userEnrollment(string _user, string passwd) public {\r\n    //Comprovar que no existeixi un user amb aquesta adreça ni amb aquest nom\r\n    require(keccak256(addressToUser_[msg.sender].name) == keccak256(\"\"));\r\n\r\n    for (uint i = 0; i < users_.length; ++i) {\r\n      require(keccak256(_user) != keccak256(users_[i].name));\r\n    }\r\n\r\n    string[] memory files;\r\n    User memory newUser = User(msg.sender, _user, passwd, files, false);\r\n    users_.push(newUser);\r\n    addressToUser_[msg.sender] = newUser;\r\n    usernameToUser_[_user] = newUser;\r\n  }\r\n\r\n  // @dev Hashes.deployed().then(function(instance){return instance.addFile('983umskjdsfh892hfy89hf8d9sh')})\r\n  //Afegir fitxer\r\n  function addFile(string _hash) public {\r\n    //Caldria comprovar que el hash no conte '/'\r\n    User storage user = addressToUser_[msg.sender];\r\n    User storage user_names = usernameToUser_[user.name];\r\n    //Comprovem que l'usuari s'ha loggejat\r\n    require(user.active);//, 'You cannot add a file without logging in');\r\n    user.files.push(_hash);\r\n    user_names.files.push(_hash);\r\n\r\n  }\r\n\r\n  // @dev Hashes.deployed().then(function(instance) { return instance.getMyUserName() } )\r\n  function getMyUserName() public view returns (string) {\r\n    string memory username = addressToUser_[msg.sender].name;\r\n     if (keccak256(username) == keccak256(\"\")) {\r\n      return \"\";\r\n    }\r\n    return username;\r\n  }\r\n\r\n  // @dev Hashes.deployed().then(function(instance) { return instance.getFilesFromUser() })\r\n  // Retorna tots els fitxers que pertanyen a aquest usuari\r\n  function getFilesFromUser() public view returns (string) {\r\n    string memory returnValue = \"No files\";\r\n    User storage user = addressToUser_[msg.sender];\r\n    // L'usuari ha d'estar loggejat\r\n    require(user.active);\r\n    for (uint256 i = 0; i < user.files.length; ++i) {\r\n      if (i == 0) {\r\n        returnValue = user.files[i].toSlice().concat(\"/\".toSlice());\r\n      } else {\r\n        string memory inter = user.files[i].toSlice().concat(\"/\".toSlice());\r\n        returnValue = returnValue.toSlice().concat(inter.toSlice());\r\n      }\r\n    }\r\n    return returnValue;\r\n  }\r\n\r\n  // @dev Hashes.deployed().then(function(instance) { return instance.login( 'xd' ) })\r\n  // Per fer login del usuari\r\n  function login(string passwd) public {\r\n    User storage user = addressToUser_[msg.sender];\r\n    // Per poder fer login l'usuari no ha d'estar loggejat\r\n    require(!user.active);\r\n    require(keccak256(user.passwd) == keccak256(passwd));\r\n    user.active = true;\r\n  }\r\n\r\n  // @dev Hashes.deployed().then(function(instance) { return instance.logout() })\r\n  // Per fer logout del usuari\r\n  function logout() public {\r\n    User storage user = addressToUser_[msg.sender];\r\n    // Per poder fer logout l'usuari ha d'estar loggejat\r\n    require(user.active); \r\n    user.active = false;\r\n  }\r\n\r\n  function shareHash(string _userToShare, string _hash) public {\r\n    User storage userOwner = addressToUser_[msg.sender];\r\n    // Per poder compartir un hash has d'estar loggejat\r\n    require(userOwner.active);\r\n    bool found = false;\r\n    for (uint i = 0; i < userOwner.files.length; ++i) {\r\n      if (keccak256(userOwner.files[i]) == keccak256(_hash)) {\r\n        found = true;\r\n      } \r\n    }\r\n    // Per poder compartir un hash l'usuari ha de tenir el hash\r\n    require(found);\r\n    User storage user2Share = usernameToUser_[_userToShare];\r\n    require(keccak256(user2Share.name) != keccak256(\"\"));\r\n    user2Share.files.push(_hash);\r\n    User storage user2 = addressToUser_[user2Share.account];\r\n    // Per poder compartir un hash amb un usuari aquest ha d'existir\r\n    require(keccak256(user2.name) != keccak256(\"\"));\r\n    user2.files.push(_hash);\r\n  }\r\n\r\n}\r\n",
  "sourcePath": "C:\\Users\\AlbertoGomez\\PTI-Project\\Ethereum\\contracts\\Hashes.sol",
  "compiler": {
    "name": "solc",
    "version": "0.4.24+commit.e67f0147.Emscripten.clang"
  },
  "schemaVersion": "2.0.1",
  "updatedAt": "2018-12-10T16:27:10.197Z"
}